:10037500726F7574696E65002E006C6F7700686921
:03038500676800A6
:10018700E4FDFCC2B4D2B500C2B600D2B400EF7031
:100197000EC2B4D2B500D2B400C2B4C2B5800CC28C
:1001A700B4D2B500D2B400C2B4D2B500D2B400C242
:1001B700B4D2B5E4FF00ED25E0FDD2B400C2B430FF
:1001C700B50543050180000FBF08EAE4FFECC31340
:1001D700FC30B505430480800000D2B400C2B40FE0
:1001E700BF08EAEDB50402AE0400D2B6D2B5D2B468
:0201F700AF0651
:0101F90022E3
:10000300120361E51EB40603E4F51EE51E7002F556
:1000130090E51EB40103759001E51EB402037590CB
:1000230002E51EB40303759003E51EB40403759043
:1000330004E51EB405037590057BFF7A0379757D8E
:10004300017F011202D8E51EFB3395E0FA750C011E
:100053007D097F01120319E4FF120187EF75F00593
:10006300A4FFAEF07C007DFF1201328F1DEFFB7AFF
:1000730000750C017D017F021201FA7BFF7A03797F
:100083007D7D037F021202D8E4FF1201877E007C8C
:10009300017DF41201201C7DFF120132AC06AD0775
:1000A300E51D75F064A4FFC3ED9FFBEC95F0FA75B5
:1000B3000C027D047F02120319E51DC39402500D47
:1000C3007BFF7A03797F7D087F021202D8E51DD377
:1000D3009402400D7BFF7A0379837D087F0212022D
:1000E300D87FDC7E0512034C120361051E02000655
:10034C00EF1FAC0670011E4C600A7D027CEFDCFED8
:04035C00DDFC80EC58
:01036000227A
:06038800C2A58F80D2A780
:08038E007F027EEFDEFEDFFCC2
:010396002244
:0A03A300C2A6120388C2A702038E4F
:1002FB00CFCDCFCECCCE1201327C007D0A12013293
:04030B00ED2430FFAE
:0A030F00D2A6120388C2A702038ED3
:10033600AE07BE0104ED148006BE0209ED243F445B
:0603460080FF1203A32258
:100361007F381203A37F0C1203A37F061203A37F1E
:04037100010203A3DF
:0A03AD00AC03120336AF0402030F85
:0602D8008B088A09890A67
:1002DE00120336E4FDAB08AA09A90A8D82758300C4
:0C02EE001200F3FF600612030F0D80E900
:0102FA0022E1
:0C02A5007F0AEA24FFFDE434FFFC7E0029
:0802B1008E0F8F108C118D12CD
:1002B9007F017E00E4FBEBC39512E5116480F874BD
:0E02C9008098500AAC0FAD101201200B80E897
:0102D7002204
:040319008A0A8B0BB6
:10031D00120336AA0CEAD39400400D1202A5AC0AC2
:08032D00AD0B1202FB1A80ED7A
:0103350022A5
:1001FA00120336C3EA64809480400B7F2B12030FEC
:10020A008A0D8B0E800E7F2D12030FC3E49BF50E11
:10021A00E49AF50DAA0CEAD39400400D1202A5AC9B
:09022A000DAD0E1202FB1A80ED6D
:0102330022A8
:040234008A158B1686
:10023800120336AA17EAD3940040297F101202A7A6
:10024800AC15AD16CFCDCFCECCCE120132EF540FB8
:10025800FEC3940AEE5004243080022437FF1203B0
:040268000F1A80D118
:01026C00226F
:04026D008A1A8B1B43
:10027100120336AA1CEAD394004028EA24FFFDE4C5
:1002810034FFFC7F027E001202B1AC1AAD1BCFCD50
:10029100CFCECCCE120132EF54012430FF12030F26
:0302A1001A80D2EE
:0102A4002237
:0300000002039761
:0C039700787FE4F6D8FD75811E0200039B
:1000F300BB010CE58229F582E5833AF583E02250C2
:1001030006E92582F8E622BBFE06E92582F8E2220B
:0D011300E58229F582E5833AF583E4932225
:10012000EF8DF0A4A8F0CF8CF0A428CE8DF0A42EF3
:02013000FE22AD
:10013200BC000BBE0029EF8DF084FFADF022E4CCB1
:10014200F875F008EF2FFFEE33FEEC33FCEE9DEC7A
:10015200984005FCEE9DFE0FD5F0E9E4CEFD22EDC0
:10016200F8F5F0EE8420D21CFEADF075F008EF2F0A
:10017200FFED33FD4007985006D5F0F222C398FDFB
:050182000FD5F0EA2298
:00000001FF
